:020000040800F2
:10000000B017002009540008C1520008C35200086C
:10001000C5520008C7520008C9520008000000007D
:10002000000000000000000000000000CB520008AB
:10003000CD52000800000000CF520008D152000845
:1000400025540008295400082D5400083154000894
:1000500035540008395400083D5400084154000844
:1000600045540008495400084D54000851540008F4
:1000700055540008595400085D54000861540008A4
:1000800065540008695400086D5400087154000854
:10009000D952000875540008795400087D540008AE
:1000A0008154000885540008895400088D540008C4
:1000B0009154000895540008995400089D54000874
:1000C000A1540008A5540008A9540008AD54000824
:1000D000B1540008B5540008B9540008BD540008D4
:1000E000C1540008C5540008C95400083EB50400B6
:1000F000002C01D10120A9E094F89102002805D13B
:10010000002084F89002200001F038F8032084F8E1
:10011000910200206071206801F0F4F96846211D09
:10012000092202F0B3F9684690E80E00206801F059
:10013000DAF9002804D0022084F89102012085E039
:100140000021206801F0E8F9002804D0022084F89A
:10015000910201207AE0002001002279C9B2914287
:1001600026D228210200D2B24A43224401235374EA
:100170000200D2B24A43224410740200D2B24A436F
:1001800022440023D3740200D2B24A432244002303
:1001900013620200D2B24A43224400235362020097
:1001A000D2B201FB02F1214400228A62401CD3E753
:1001B000002528002179C0B288422CD228202900AD
:1001C000C9B241432144002281F851212900C9B21A
:1001D0004143214481F850512900C9B2414321448F
:1001E000002281F853212900C9B241432144002251
:1001F000C1F860212900C9B2414321440022C1F85D
:1002000064212900C9B200FB01F020440021C0F89C
:1002100068116D1CCDE76846211D092202F036F9F0
:10022000684690E80E00206801F079F9002804D0B3
:10023000022084F89102012008E000206073012070
:1002400084F89102206802F082F800203EBD10B5CB
:10025000040094F89002012801D1022010E001204E
:1002600084F89002206801F043F90121200001F098
:1002700022F9206802F068F8002084F8900200203B
:1002800010BD7FB50400206802F064F80500280462
:1002900003D5200000F037FAC6E0680510D52068C5
:1002A000B0F844104FF6FF3001402068A0F8441029
:1002B000200000F0B1FF0021200000F0B6F8B3E00C
:1002C000680409D52068B0F844104BF6FF7001406F
:1002D0002068A0F84410A7E0A80409D52068B0F869
:1002E00044104DF6FF7001402068A0F844109BE0D8
:1002F000E8041ED52068B0F840104FF6FB700140AE
:100300002068A0F840102068B0F840104FF6F77051
:1003100001402068A0F84010200000F09FFF2068F6
:10032000B0F844104EF6FF7001402068A0F8441069
:100330007AE028055DD500210800C0B208280BD25C
:1003400020680A00D2B230F822006A460B00DBB205
:1003500022F81300491CEFE72068B0F8400050F085
:1003600001002268A2F840002068B0F840204FF653
:10037000FE7002402068A0F840202068B0F84400D9
:100380004005FAD52068B0F844204FF6FF3002400F
:100390002068A0F8442000263000C0B208280BD204
:1003A00068463100C9B230F8110021683200D2B27B
:1003B00021F82200761CEFE72068B0F8400050F0EA
:1003C00008002168A1F840002068B0F844104FF2FE
:1003D000FF7001402068A0F844102068B0F8400089
:1003E00050F004002168A1F84000200000F027FF31
:1003F0001AE0A8050CD52068B0F844104FF6FF505D
:1004000001402068A0F84410200000F0FEFE0BE040
:10041000E80509D52068B0F844104FF6FF600140A8
:100420002068A0F84410FFE77FBD38B504000D0038
:1004300094F89002012801D102200CE0012084F8F8
:10044000900265732900C9B2206801F073FF002093
:1004500084F89002002032BD2DE9F84304000D001D
:1004600016001F005FF0000828060DD52900C9B24C
:1004700011F007012820414304EB010010F110099D
:10048000012089F801000CE02900C9B211F0070130
:100490002820414304EB010010F5A879002089F8D9
:1004A000010015F0070089F80000300080B2C9F89B
:1004B000100089F803703800C0B2022802D1002071
:1004C00089F8040094F89002012801D102200BE081
:1004D000012084F890024946206801F031F800209C
:1004E00084F890024046C0B2BDE8F28370B50400C3
:1004F0000D0028060CD52900C9B211F007012820EB
:10050000414304EB010010F11006012070700BE074
:100510002900C9B211F007012820414304EB010072
:1005200010F5A8760020707015F00700307094F870
:100530009002012801D102200AE0012084F89002F3
:100540003100206801F0ADF9002084F8900200200D
:1005500070BD2DE9F04104000D0016001F002900B8
:10056000C9B211F007012820414304EB010010F546
:10057000A878C8F81460C8F818700020C8F81C00E3
:10058000002088F8010015F0070088F800004146B7
:10059000206801F063FA0020BDE8F081C9B211F0D3
:1005A0000701282251430844D0F86C0170472DE917
:1005B000F04104000D0016001F002900C9B211F01F
:1005C00007012820414304EB010010F11008C8F88E
:1005D0001460C8F81870012088F82400C8F820704A
:1005E0000020C8F81C00012088F8010015F0070061
:1005F00088F800004146206801F030FA0020BDE88C
:10060000F08170B504000D0020792900C9B211F005
:100610000701884201D2012036E028060CD52900C6
:10062000C9B211F007012820414304EB010010F189
:1006300010060120707009E02900C9B2282041434A
:1006400004EB010010F5A876002070700120B07056
:1006500015F00700307094F89002012801D10220B3
:1006600012E0012084F890023100206801F0EAFDD8
:1006700015F0070F04D114F52671206801F06EFE05
:10068000002084F89002002070BD70B504000D00B9
:1006900020792900C9B211F00F01884201D201204E
:1006A00030E028060CD52900C9B211F00701282036
:1006B000414304EB010010F11006012070700BE0C3
:1006C0002900C9B211F007012820414304EB0100C1
:1006D00010F5A876002070700020B07015F00700AB
:1006E000307094F89002012801D102200AE0012024
:1006F00084F890023100206801F0C9FD002084F8E0
:100700009002002070BD2DE9FE4F04002068B0F873
:100710004400000440F166822068B0F84400ADF85F
:100720000200BDF8020010F00F0080464046C0B243
:10073000002840F0E980BDF80200C00632D42068ED
:10074000018848F60F70084050F400402168088086
:1007500014F1100005002068B0F85000297810EB63
:10076000C100216811EB400101F20441088880B208
:100770008005800DE8616869E969084468610021C5
:10078000200000F031FD607B0028BFD0A869002860
:10079000BCD1607B50F080002168A1F84C000020A3
:1007A0006073B3E714F5A87005002068008807009F
:1007B000380524D52068B0F85000297810EBC10026
:1007C000216811EB400101F20C41088880B28005DC
:1007D000800DE861EB699BB2EA8814F52671206808
:1007E00001F0E6FD2068018840F68F70084050F067
:1007F000800021680880200000F0DBFC86E73804D8
:1008000084D52068018840F68F70084050F0800041
:10081000216808802068B0F85000297810EBC100EA
:10082000216811EB400101F20C41088880B280057B
:10083000800DE861E869002811D0686900280ED0B1
:10084000EB699BB2EA886969206801F0B1FD6869CB
:10085000E969084468610021200000F0B3FC2068C9
:100860000088070038053FF551AF380080B210F41A
:100870004050B0F5405F3FF449AF21682068B0F8C0
:100880005000411801F20C408146B9F80000800583
:10089000800DA9F8000028693F280FD32869400976
:1008A0002A7C12F01F0F00D1401EB9F8002052EA36
:1008B000802252F40042A9F8002015E0286900289F
:1008C00006D1B9F8000050F40040A9F800000BE090
:1008D000286940082A7CD20700D5401CB9F80020BE
:1008E00052EA8022A9F80020206802884BF68F7017
:1008F000104090F4805090F4005040F4004050F0CC
:1009000080002268108001E720684146C9B230F8B3
:1009100021000700380440F1A68020684146C9B292
:1009200030F8211040F68F70084050F080002168A8
:100930004246D2B221F822004146C9B228204143A2
:1009400004EB010010F5A8700500287B00281AD1DF
:100950002068B0F85000297810EBC100216811EB35
:10096000400101F20C4108888005800D060030002E
:1009700080B200285CD033009BB2EA8869692068A5
:1009800001F016FD54E0E878022807D13A0092B24F
:100990002900200000F029F9060049E020682978A4
:1009A00030F8211048F68F70084040F4004050F0B5
:1009B000C00021682A7821F822002068297830F8C0
:1009C000210040041AD52068B0F85000297810EBB7
:1009D000C100216811EB400101F204410888800543
:1009E000800D0600300080B2002821D033009BB279
:1009F0002A896969206801F0DBFC19E02068B0F8F9
:100A00005000297810EBC100216811EB400101F280
:100A10000C4108888005800D0600300080B2002857
:100A200006D033009BB26A896969206801F0C0FC76
:100A3000E969300080B24118E9616869310089B222
:100A400008446861A869002804D0300080B2296990
:100A5000884204D22978200000F0B4FB03E029008A
:100A6000206800F0FBFF38067FF550AE4146C9B262
:100A70002820414304EB0100103005002068414666
:100A8000C9B230F8211048F60F70084050F4004009
:100A900021684246D2B221F82200E878012864D1C8
:100AA0000020A861287B00285AD078062CD56878C9
:100AB000002817D121682068B0F850004118287824
:100AC00011EB001000F204408246BAF800008005E5
:100AD000800DAAF80000BAF8000050F40040AAF80F
:100AE000000010E0687801280DD121682068B0F876
:100AF00050004118287811EB001000F204400290D9
:100B00000020029A10802BE021686878002817D115
:100B100022682068B0F850008218287812EB001084
:100B200000F20C408346BBF800008005800DABF856
:100B30000000BBF8000050F40040ABF800000FE0EC
:100B4000687801280CD12068B0F850004118287846
:100B500011EB001000F20C4001900020019A10806F
:100B60002978200000F040FBD0E5F80533D4206858
:100B7000B0F85000297810EBC100216811EB40015A
:100B800001F2044108888005800DADF80000BDF831
:100B90000000A969884205D2A969BDF80000091AB8
:100BA000A96101E00020A861A869002804D1297882
:100BB000200000F019FBA9E56869BDF800100844A1
:100BC0006861E969BDF800004118E9612900206801
:100BD00000F044FF9AE53A0092B22900200000F0AC
:100BE000A4F893E50020BDE8FE8FF8B504000D00E1
:100BF000160070044BD52068B0F85000297810EB2F
:100C0000C100216811EB400101F204410F88BF05CA
:100C1000BF0DA869390089B2884205D3A969380097
:100C200080B2091AA96101E00020A861A869002822
:100C300010D12068297830F821104BF68F700840C9
:100C400090F4005040F4004050F0800021682A7871
:100C500021F8220070060ED52068297830F821107E
:100C600048F68F70084040F4004050F0C000216802
:100C70002A7821F82200380080B2002852D03B00A8
:100C80009BB22A896969206801F092FB4AE02068DA
:100C9000B0F85000297810EBC100216811EB400139
:100CA00001F20C410F88BF05BF0DA869390089B258
:100CB000884205D3A969380080B2091AA96101E008
:100CC0000020A861A869002810D12068297830F890
:100CD00021104BF68F70084090F4005040F4004013
:100CE00050F0800021682A7821F8220070060ED486
:100CF0002068297830F8211048F68F70084040F4B9
:100D0000004050F0C00021682A7821F82200380005
:100D100080B2002806D03B009BB26A8969692068CE
:100D200001F046FB380080B2F2BD2DE9F04105002C
:100D30000E001700780640F104812868B0F85000D2
:100D4000317810EBC100296811EB400101F2044138
:100D5000B1F800805FEA88585FEA9858404680B250
:100D6000B169884205D2B169404680B2091AB161C1
:100D700001E00020B061B069002860D170780028DF
:100D800012D129682868B0F850004118307811EB6A
:100D9000001000F2044002889205920D0280028841
:100DA00052F4004202800EE0707801280BD12968CD
:100DB0002868B0F850004118307811EB001000F2AC
:100DC00004400022028029687078002812D12A6825
:100DD0002868B0F850008218307812EB001000F24A
:100DE0000C4003889B059B0D0380038853F400434C
:100DF00003800DE0707801280AD12868B0F850000F
:100E00004118307811EB001000F20C4000220280F3
:100E10003178280000F0E8F9780440F199812868D9
:100E2000317830F8211048F68F70084040F4404087
:100E300050F080002968327821F8220088E1780497
:100E40000ED52868317830F8211048F68F700840A8
:100E500040F4404050F080002968327821F82200A8
:100E600096F82400012840F073817069414689B2E8
:100E700008447061F169404680B24118F161306AFE
:100E80003169884205D330690400306A001B306242
:100E900010E0306A002806D1404680B204000020ED
:100EA00086F8240006E0002086F82400306A04005A
:100EB00000203062707800282DD129682868B0F8A9
:100EC00050004118307811EB001000F20440028805
:100ED0009205920D02803F2C0CD32200520914F08F
:100EE0001F0F00D1521E038853EA822353F400439C
:100EF00003800FE0002C04D1028852F400420280EB
:100F000008E022005208E30700D5521C038853EA88
:100F1000822303800DE0707801280AD129682868AF
:100F2000B0F850004118307811EB001000F2044086
:100F3000048023009BB232897169286801F011FA9C
:100F400006E12868B0F85000317810EBC10029683C
:100F500011EB400101F20C41B1F800805FEA8858C2
:100F60005FEA9858B069414689B2884205D3B169B1
:100F7000404680B2091AB16101E00020B061B06959
:100F8000002860D17078002812D129682868B0F84C
:100F900050004118307811EB001000F20440028834
:100FA0009205920D0280028852F4004202800EE007
:100FB000707801280BD129682868B0F850004118D2
:100FC000307811EB001000F2044000220280296802
:100FD0007078002812D12A682868B0F8500082186A
:100FE000307812EB001000F20C4003889B059B0D3B
:100FF0000380038853F4004303800DE070780128D8
:101000000AD12868B0F850004118307811EB001070
:1010100000F20C40002202803178280000F0E4F851
:10102000780400F195802868317830F8211048F66E
:101030008F70084040F4404050F0800029683278BA
:1010400021F8220084E078040ED42868317830F842
:10105000211048F68F70084040F4404050F0800066
:101060002968327821F8220096F8240001286FD1EF
:101070007069414689B208447061F169404680B2A6
:101080004118F161306A3169884205D33069040042
:10109000306A001B306210E0306A002806D14046FA
:1010A00080B20400002086F8240006E0306A0400C4
:1010B00000203062002086F824002968707800281B
:1010C00032D12A682868B0F850008218307812EBC4
:1010D000001000F20C4003889B059B0D03803F2C01
:1010E0000ED323005B0914F01F0F00D15B1EB0F874
:1010F00000C05CEA832C5CF4004CA0F800C012E055
:10110000002C04D1038853F4004303800BE0230038
:101110005B085FEAC47C00D55B1CB0F800C05CEAE9
:10112000832CA0F800C00CE07078012809D1286851
:10113000B0F850004118307811EB001000F20C406C
:10114000048023009BB272897169286801F009F953
:101150002868317830F8211048F6BF70084090F0C8
:10116000100090F0200040F4004050F0800029680A
:10117000327821F822000020BDE8F0811CB504007F
:101180002068DFF81C13884212D1DFF818030168C9
:1011900051F400010160006810F400000090009814
:1011A00000220021142001F03CFA142001F04EFA34
:1011B00013BD10B5040014F52671D4F8D40201F063
:1011C000B6FA10BD38B504000D002900C9B22820B8
:1011D000414304EB0100D0F864212900C9B2D4F8DE
:1011E000D40201F0D8FA31BD38B504000D00290051
:1011F000C9B22820414304EB0100426A2900C9B268
:10120000D4F8D40201F01EFB31BD10B50400D4F8AF
:10121000D40201F0E6FB10BD38B504000125A07929
:10122000022801D001F06EFC2900C9B2D4F8D40222
:1012300001F0BEFBD4F8D40201F08AFB31BD10B539
:101240000400D4F8D40201F0B7FBA07A002804D03F
:101250009548016851F00601016010BD10B5040009
:10126000D4F8D40201F0B2FB10BD10B504008F48D1
:10127000C0F8D442C4F8C002894901600821017154
:1012800002218171002181720021C172002101734C
:10129000FEF72CFF002801D001F034FC18230022B7
:1012A0000021D4F8C00201F02FFC58230022802135
:1012B000D4F8C00201F028FCC02300228121D4F818
:1012C000C00201F021FC4FF4887300220121D4F800
:1012D000C00201F019FC4FF4807300228221D4F87F
:1012E000C00201F011FC002010BDF8B5040000257B
:1012F0000027D4F8C002FEF7AAFF06003000C0B2F3
:1013000000F0DAF8C0B2F2BD2DE9F04704000D009C
:1013100016001F005FF000085FF0000A3300DBB228
:101320003A0092B22900C9B2D4F8C002FFF794F88B
:1013300081464846C0B200F0BFF8C0B2BDE8F087B1
:101340002DE9F04104000D0000265FF0000829009F
:10135000C9B2D4F8C002FFF7C9F807003800C0B21C
:1013600000F0AAF8C0B2BDE8F0812DE9F041040018
:101370000D0000265FF000082900C9B2D4F8C002B1
:10138000FFF73FF907003800C0B200F095F8C0B28F
:10139000BDE8F0812DE9F04104000D0000265FF06A
:1013A00000082900C9B2D4F8C002FFF76EF907009F
:1013B0003800C0B200F080F8C0B2BDE8F081020091
:1013C000D2F8C032080608D5C9B211F07F01282032
:1013D000414303EB0100807C08E0C9B211F07F01BA
:1013E0002820414303EB010090F8520170472DE99A
:1013F000F04104000D0000265FF000082900C9B28A
:10140000D4F8C002FFF711F807003800C0B200F0AE
:1014100053F8C0B2BDE8F0812DE9F04704000D009B
:1014200016001F005FF000085FF0000A3B009BB24F
:1014300032002900C9B2D4F8C002FFF7B8F88146DB
:101440004846C0B200F038F8C0B2BDE8F0872DE9D8
:10145000F04704000D0016001F005FF000085FF069
:10146000000A3B009BB232002900C9B2D4F8C00286
:10147000FFF76FF881464846C0B200F01DF8C0B2D1
:10148000BDE8F08738B504000D002900C9B2D4F8D2
:10149000C002FFF783F832BD010005487047000025
:1014A000005C00401C10024010ED00E04C090020E0
:1014B000E80E002070477047010000220800C0B20B
:1014C000002805D0022807D004D3032806D007E05F
:1014D000002006E0022004E0012002E0022000E0FB
:1014E0000220C0B2704710B40400002010BC704746
:1014F00001000020A1F844004FF43F42A1F8402031
:101500000020704701004FF43F42B1F84000904383
:10151000A1F840000020704702000020704710B47E
:1015200004000120A4F840000020A4F8400000209E
:10153000A4F844000020A4F85000002010BC70471C
:101540002DE9F04103000A000020117833F8211042
:1015500048F68F140C40D178002905D0022906D016
:1015600009D3032904D009E054F4007408E007E02B
:1015700054F4C06404E054F4806401E001210800E4
:1015800048F2800555EA0401167823F8261048F63B
:101590008F76117833F82170374011783943294319
:1015A000177823F82710117B002940F0B980517873
:1015B00000293CD01F00B3F85010CF19117817EB59
:1015C000011C1CF5806CB2F806E04FF6FE7111EAC2
:1015D0000E0EACF800E0117833F821105FEA416C90
:1015E0000AD5177833F827703E4046F4004656F087
:1015F000C006177823F82760D17801290CD011781C
:1016000033F8216048F6BF71314091F020010D435D
:10161000117823F8215041E1117833F8216048F620
:10162000BF7131400D43117823F8215036E11F007E
:10163000B3F85010CF19117817EB011C1CF5816C11
:10164000B2F806E04FF6FE7111EA0E0EACF800E0BB
:101650009C46B3F8501011EB0C0C11781CEB011EDA
:101660000EF20C4EBEF800108905890DAEF8001080
:1016700011693F290FD311694909177C17F01F0F12
:1016800000D1491EBEF8007057EA812757F4004781
:10169000AEF8007015E01169002906D1BEF80010FF
:1016A00051F40041AEF800100BE011694908177CB5
:1016B000FF0700D5491CBEF8007057EA8127AEF835
:1016C0000070117833F821104F040AD5177833F8D9
:1016D00027703E4046F4404656F08006177823F8BF
:1016E0002760117800290ED1117833F821604BF66C
:1016F0008F71314091F4805191F400510D43117874
:1017000023F82150CAE0117833F821604BF68F712D
:10171000314091F400510D43117823F82150BDE080
:10172000D17802290BD1117833F82110314041F4DE
:10173000014151F08001177823F8271009E0117852
:1017400033F8217048F68F6139402943177823F820
:1017500027101F00B3F85010CF19117817EB011C98
:101760001CF5806CB2F808E04FF6FE7111EA0E0E1F
:10177000ACF800E09E46B3F8501011EB0E0E117855
:101780001EEB011C1CF5816CB2F80A804FF6FE714D
:1017900011EA0808ACF800805178002939D1117895
:1017A00033F821104F040BD5177833F827703740E2
:1017B00047F4404757F0800792F800C023F82C7098
:1017C000117833F821104F060AD5177833F82770AF
:1017D0003E4046F4004656F0C006177823F82760CE
:1017E000117833F821604BF68F71314091F48051BC
:1017F00091F400512943167823F82610117833F814
:10180000216048F6BF7131400D43117823F8215013
:1018100044E0117833F821104F040BD5177833F8D2
:101820002770374047F4404757F0800792F800C0D0
:1018300023F82C70117833F821104F060AD5177849
:1018400033F827703E4046F4004656F0C00617783D
:1018500023F82760D17801290CD0117833F8216062
:1018600048F6BF71314091F020012943167823F8E2
:10187000261009E0117833F8216048F6BF71314035
:101880002943167823F82610117833F821604BF697
:101890008F7131400D43117823F82150C0B2BDE85B
:1018A000F08110B40200087B002842D1487800285B
:1018B0001FD0087832F8200043060CD50B7832F898
:1018C000234048F68F73234043F4004353F0C00392
:1018D0000C7822F82430087832F8203048F6BF70AF
:1018E000184040F4004050F080000B7822F82300AC
:1018F000B1E0087832F8200043040CD50B7832F8B8
:10190000234048F68F73234043F4404353F0800351
:101910000C7822F82430087832F820304BF68F709B
:10192000184040F4004050F080000B7822F823006B
:1019300091E04878002847D1087832F82000430425
:101940000CD50B7832F8234048F68F73234043F4CC
:10195000404353F080030C7822F82430087832F8A2
:10196000200043060CD50B7832F8234048F68F73DD
:10197000234043F4004353F0C0030C7822F8243092
:10198000087832F8203048F68F70184040F4004054
:1019900050F0C0000B7822F82300087832F82000BD
:1019A0004BF68F73034048F2800003430C7822F813
:1019B00024300B7832F8234048F6BF732340184395
:1019C0000B7822F8230046E0087832F82000430420
:1019D0000CD50B7832F8234048F68F73234043F43C
:1019E000404353F080030C7822F82430087832F812
:1019F000200043060CD50B7832F8234048F68F734D
:101A0000234043F4004353F0C0030C7822F8243001
:101A1000087832F8203048F68F70184040F4404083
:101A200050F080000B7822F82300087832F820006C
:101A300048F6BF73034048F2800003430C7822F855
:101A400024300B7832F823404BF68F732340184331
:101A50000B7822F82300002010BC70472DE9F843D2
:101A600005000E007078012840F056823069B16997
:101A7000884202D23069040001E0B0690400307B82
:101A8000002811D123009BB2F2887169280000F070
:101A900068FC2900B5F850004118307811EB0010AF
:101AA00000F20440048025E2F078022840F08681AC
:101AB0003069316A884280F05C81307835F82010D6
:101AC00048F68F70084040F4014050F080003178B3
:101AD00025F82100306A001B3062307835F820008C
:101AE000400640F1A38029007078002831D12A00F7
:101AF000B5F850008218307812EB001000F20C405C
:101B000003889B059B0D03803F2C0ED323005B09AC
:101B100014F01F0F00D15B1EB0F800C05CEA832CEC
:101B20005CF4004CA0F800C012E0002C04D1038843
:101B300053F4004303800BE023005B085FEAC47C9E
:101B400000D55B1CB0F800C05CEA832CA0F800C094
:101B50000BE07078012808D1B5F8500041183078B2
:101B600011EB001000F20C400480B6F80A9023003C
:101B70009BB24A4692B27169280000F0F2FB70698C
:101B8000204470613069316A884203D2306A001B98
:101B9000306203E0306A0400002030627078002870
:101BA0002CD12900B5F850004118307811EB001005
:101BB00000F2044002889205920D02803F2C0CD363
:101BC0002200520914F01F0F00D1521E038853EA5D
:101BD000822353F4004303800FE0002C04D10288D9
:101BE00052F40042028008E022005208E30700D5C8
:101BF000521C038853EA822303800CE0707801288A
:101C000009D12900B5F850004118307811EB0010C7
:101C100000F204400480B6F8088023009BB24246DC
:101C200092B27169280000F09CFB63E17078002893
:101C30002CD12900B5F850004118307811EB001074
:101C400000F2044002889205920D02803F2C0CD3D2
:101C50002200520914F01F0F00D1521E038853EACC
:101C6000822353F4004303800FE0002C04D1028848
:101C700052F40042028008E022005208E30700D537
:101C8000521C038853EA822303800CE070780128F9
:101C900009D12900B5F850004118307811EB001037
:101CA00000F204400480B6F8089023009BB24A4634
:101CB00092B27169280000F054FB70692044706191
:101CC0003069316A884203D2306A001B306203E017
:101CD000306A04000020306229007078002831D179
:101CE0002A00B5F850008218307812EB001000F28C
:101CF0000C4003889B059B0D03803F2C0ED32300D3
:101D00005B0914F01F0F00D15B1EB0F800C05CEA45
:101D1000832C5CF4004CA0F800C012E0002C04D12D
:101D2000038853F4004303800BE023005B085FEA61
:101D3000C47C00D55B1CB0F800C05CEA832CA0F822
:101D400000C00BE07078012808D1B5F850004118A8
:101D5000307811EB001000F20C400480B6F80A80D5
:101D600023009BB2424692B27169280000F0F9FA52
:101D7000C0E0306A0400307835F8201048F68F60F3
:101D8000084040F4004050F08000317825F82100F0
:101D9000A946B5F8500010EB0909307819EB00108E
:101DA00000F2044004803089804623009BB2424602
:101DB00092B27169280000F0D4FA9BE0306A001BEF
:101DC0003062307835F8200040064CD52900707814
:101DD000002831D12A00B5F850008218307812EB73
:101DE000001000F20C4003889B059B0D03803F2CE4
:101DF0000ED323005B0914F01F0F00D15B1EB0F857
:101E000000C05CEA832C5CF4004CA0F800C012E037
:101E1000002C04D1038853F4004303800BE023001B
:101E20005B085FEAC47C00D55B1CB0F800C05CEACC
:101E3000832CA0F800C00BE07078012808D1B5F819
:101E400050004118307811EB001000F20C40048073
:101E50007089804623009BB2424692B27169280085
:101E600000F07FFA46E0707800282CD12900B5F800
:101E700050004118307811EB001000F20440028845
:101E80009205920D02803F2C0CD32200520914F0CF
:101E90001F0F00D1521E038853EA822353F40043DC
:101EA00003800FE0002C04D1028852F4004202802B
:101EB00008E022005208E30700D5521C038853EAC9
:101EC000822303800CE07078012809D12900B5F83D
:101ED00050004118307811EB001000F204400480EB
:101EE0003089804623009BB2424692B27169280035
:101EF00000F037FA307835F8201048F6BF70084007
:101F000090F0100090F0200040F4004050F080006D
:101F1000317825F8210092E1307B00283AD13069F0
:101F2000B169884205D230690400B069001BB06114
:101F300003E0B06904000020B0612900B5F850004A
:101F40004118307811EB001000F20C400288920525
:101F5000920D02803F2C0CD32200520914F01F0F67
:101F600000D1521E038853EA822353F400430380B6
:101F70000FE0002C04D1028852F40042028008E0F5
:101F800022005208E30700D5521C038853EA82233B
:101F9000038043E1F078022840F0AC80707800289C
:101FA00030D12900B5F850004118307811EB0012FB
:101FB00002F2044210888005800D108030693F28AD
:101FC0000DD330694009337C13F01F0F00D1401E40
:101FD000138853EA802353F40043138011E03069DF
:101FE000002804D1108850F40040108009E03069C6
:101FF0004008337CDB0700D5401C138853EA80235C
:1020000013800DE0707801280AD12900B5F850003E
:102010004118307811EB001000F204403269028060
:1020200029007078002837D12A00B5F850008218AE
:10203000307812EB001303F20C4318888005800DF2
:10204000188030693F2810D33069400996F810C0D5
:102050001CF01F0F00D1401EB3F800C05CEA802CBA
:102060005CF4004CA3F800C015E03069002804D1EE
:10207000188850F4004018800DE03069400896F848
:1020800010C05FEACC7C00D5401CB3F800C05CEA0D
:10209000802CA3F800C00CE07078012809D1B5F8B5
:1020A00050004118307811EB001000F20C403269FA
:1020B0000280F069002800F0B180307835F8200007
:1020C000070044F2400010EA0701020089B2914281
:1020D00002D0074240F0A280307835F8201048F650
:1020E0008F70084040F4004050F0C000317825F86F
:1020F000210093E0F078012840F08E803069B169CA
:10210000884205D230690400B069001BB06103E069
:10211000B06904000020B061707800282CD129003B
:10212000B5F850004118307811EB001000F204406F
:1021300002889205920D02803F2C0CD32200520996
:1021400014F01F0F00D1521E038853EA822353F468
:10215000004303800FE0002C04D1028852F40042B7
:10216000028008E022005208E30700D5521C0388D1
:1021700053EA822303800CE07078012809D12900FA
:10218000B5F850004118307811EB001000F204400F
:10219000048029007078002831D12A00B5F8500059
:1021A0008218307812EB001000F20C4003889B0577
:1021B0009B0D03803F2C0ED323005B0914F01F0FEF
:1021C00000D15B1EB0F800C05CEA832C5CF4004CCC
:1021D000A0F800C012E0002C04D1038853F400439F
:1021E00003800BE023005B085FEAC47C00D55B1C26
:1021F000B0F800C05CEA832CA0F800C00BE0707857
:10220000012808D1B5F850004118307811EB0010C2
:1022100000F20C40048001E0012011E0307835F834
:1022200020104BF68F70084090F4805090F40050CE
:1022300040F4004050F08000317825F82100002063
:10224000BDE8F2830200487800280FD0087832F801
:10225000203048F6BF70184090F0100040F4004065
:1022600050F080000B7822F823000EE0087832F856
:1022700020304BF68F70184090F4805040F40040AE
:1022800050F080000B7822F823000020704710B433
:102290000200087B00284AD14878002824D008781A
:1022A00032F8200043060CD50B7832F8234048F66C
:1022B0008F73234043F4004353F0C0030C7822F89B
:1022C0002430C878012832D0087832F8203048F617
:1022D000BF70184090F0200040F4004050F08000A3
:1022E0000B7822F8230022E0087832F8200043041B
:1022F0000CD50B7832F8234048F68F73234043F413
:10230000404353F080030C7822F82430087832F8E8
:1023100020304BF68F70184090F4805090F40050AD
:1023200040F4004050F080000B7822F82300002099
:1023300010BC704702000800C0B2002802D1802003
:10234000A2F84C00002070470100002070470100F7
:10235000002070470100B1F84400704702000020DF
:1023600070472DE9F04304001E00B6B2761C7608D3
:1023700027008846100080B217EB400E1EF5806ED5
:102380003000002812D098F800C098F801905CEA5C
:10239000092C6546AEF800501EF1020C1CF1020E2D
:1023A00018F1010C1CF10108401EEAE7BDE8F083BA
:1023B0002DE9F04104001E00B6B2760827008C46D5
:1023C000100080B217EB400E1EF5806E3000002822
:1023D00013D0BEF8008045461EF1020E8CF8005066
:1023E0001CF1010CA8465FEA18288CF800801CF14B
:1023F000010C1EF1020E401EE9E75FEAC37804D526
:10240000BEF8008045468CF80050BDE8F081F0B47D
:102410000246106895681318506803EB5004C00713
:1024200048BF4D44A3422DD013F8016B16F00300B2
:1024300004BF13F8010BC01C31090F2907D113F891
:10244000011B0F3103E013F8017B05F8017B401EEF
:10245000F9D10029E6D013F8010BC6F38106032E4B
:1024600008BF13F8016B00EB062040422844002609
:10247000B71E8F421EBF10F8017B05F8017B761C4A
:10248000F6D1CFE7F0BC02F10C00704762B38B07C6
:1024900008D0521E11F8013B00F8013B00F02480E7
:1024A0008B07F6D1830740F0208000BF103A07D396
:1024B00030B4B1E83810103AA0E83810F9D230BC86
:1024C000530724BFB1E80810A0E8081044BF51F832
:1024D000043B40F8043BD20724BF31F8022B20F81C
:1024E000022B44BF0B7803707047121F17D35B0099
:1024F00009D151F8043B20F8023B1B0C121F20F8B5
:10250000023BF6D20BE051F8043B00F8013B1B0AFA
:1025100020F8023B1B0C121F00F8013BF3D238BF1E
:10252000121D521E24BF11F8013B00F8013BF8D8E0
:102530007047010210B410F007034B4C22684FF6AD
:10254000FF010A4052EA032248490A43226010BCB4
:10255000704745480068C0F302207047010049B247
:10256000002909D4012210F01F018A4040490300CC
:102570005BB25B0941F82320704710B4020052B2ED
:10258000002A05D40A013B4B040064B21A5508E046
:102590000A01394B040064B214F00F04234403F819
:1025A000042C10BC704770B4030013F00704D4F17E
:1025B0000700052801D3042001E0D4F10700251D00
:1025C000072D01D2002500E0E51E012616FA00F0D5
:1025D000401E0140A94016FA05F56D1E2A40114320
:1025E000080070BC704710B50400601EB0F1807F19
:1025F00001D301200EE0601E204908600F215FF02A
:10260000FF30FFF7BAFF00201D49086007201D4971
:102610000860002010BD10B504002000FFF78AFFFD
:1026200010BD2DE9F04104000D0016000027FFF752
:1026300090FF8046320029004046FFF7B4FF0100BA
:10264000200040B2FFF799FFBDE8F08110B504000B
:10265000200040B2FFF782FF10BD10B5040020003B
:10266000FFF7C1FF10BD00000CED00E00000FA050F
:1026700000E100E000E400E018ED00E014E000E01C
:1026800018E000E010E000E070B505000C00160056
:10269000002D01D1022012E0D5F8B402002802D0AA
:1026A0000020C5F8B402002C01D0C5F8B0420120CA
:1026B00085F89C022E702800FEF7D7FD002070BD23
:1026C00002000023002903D0C2F8B412002000E069
:1026D0000220C0B2704710B504002000FEF705FECE
:1026E000002010BD01000020704770B504000D00EF
:1026F0000226D4F8B40200280AD02900C9B220006A
:10270000D4F8B42212689047002801D100200600B6
:102710003000C0B270BD38B504000D002900C9B248
:102720002000D4F8B42252689047002032BD38B55A
:1027300004000D00290014F52A7000F0DEFD0120D0
:10274000C4F89402B4F8AE02C4F8980294F8A8024F
:1027500010F01F00002803D002280DD006D311E08E
:1027600014F52A71200000F0F7F912E014F52A712F
:10277000200000F044FA0CE014F52A71200000F06B
:1027800075FA06E094F8A81211F080012000FEF717
:10279000ECFD002032BDF8B504000F001500380034
:1027A000C0B2002839D114F5AA700600D4F89402FA
:1027B000032826D13069F168884210D2F168306967
:1027C000091AF160F0683169884201D2F26800E0CC
:1027D000326992B22900200000F01BFE30E0D4F8EC
:1027E000B4020069002808D094F89C02032804D1A0
:1027F0002000D4F8B41209698847200000F016FEC2
:102800001EE0D4F8940205281AD10020C4F89402DE
:1028100000212000FEF7A9FD12E0D4F8B40280697F
:1028200000280BD094F89C02032807D13900C9B2C4
:102830002000D4F8B4229269904701E0022000E021
:102840000020F2BDF8B504000D0016002800C0B24B
:10285000002868D114F114000700D4F8940202286B
:102860004AD13869F968884210D2F9683869091A7A
:10287000F960FA6892B23100200000F0A5FD002353
:10288000002200212000FEF7E2FD41E0B86839692E
:10289000B0FBF1F201FB1200002817D1B8683969CA
:1028A000884213D3B868D4F8981288420ED2002216
:1028B0000021200000F088FD0020C4F898020023C9
:1028C000002200212000FEF7C2FD21E0D4F8B4026E
:1028D000C068002808D094F89C02032804D1200086
:1028E000D4F8B412C968884780212000FEF73DFD66
:1028F000200000F0A8FD0BE0D4F89402042803D0D7
:10290000D4F89402002803D180212000FEF72DFD89
:1029100094F8A002012819D12000FFF7E3FE00205F
:1029200084F8A00212E0D4F8B402406900280BD069
:1029300094F89C02032807D12900C9B22000D4F8DA
:10294000B4225269904701E0022000E00020F2BD6D
:1029500010B504004023002200212000FEF7D4FC23
:102960000120C4F858014020C4F86401402300222B
:1029700080212000FEF7C8FC0120A0614020606299
:10298000012084F89C020020C4F8940200206060BA
:102990000020C4F8A402D4F8B802002806D0616868
:1029A000C9B22000D4F8B42252689047002010BD6C
:1029B0000200117400207047010091F89C0281F818
:1029C0009D02042081F89C0200207047010091F8CC
:1029D0009C02042803D191F89D0281F89C020020FA
:1029E000704710B5040094F89C02032809D1D4F86C
:1029F000B402C069002804D02000D4F8B412C96918
:102A00008847002010BD00001FB50020009000F096
:102A100027FD00F02DF800F035FD00F079FD00F005
:102A2000A3FD0C2000F082FF104C01224FF48061C6
:102A3000200001F0E3F84FF4FA7001F00DF90022E4
:102A40004FF48061200001F0D9F84FF4FA7001F0E2
:102A500003F900F0DDFD00F00BFF01A9002000F0FC
:102A600035FF6946002000F04EFFDDE70008014019
:102A700018B593B02821002209AC200001F000F91C
:102A8000142100226C46200001F0FAF810210022E7
:102A900005AC200001F0F4F8012009905FF48030CB
:102AA0000A9000210B9101210D91022110911190AA
:102AB0005FF4E010129009A801F016F9002801D087
:102AC00000F020F80F2000900220019000200290DA
:102AD0004FF480600390002004900221684601F0CA
:102AE00003FB002801D000F00DF810200590002015
:102AF000089005A801F002FC002801D000F002F8BF
:102B000014B010BD72B6FEE730B4040008060AD552
:102B10000D00ADB215F007052820454304EB050074
:102B200010F1100507E00D00ADB22820454304EB7D
:102B3000050010F5A875100080B2002803D1002010
:102B40002873EB8005E0012028732B811800000C0E
:102B50006881002030BC704770B504000D0000266D
:102B6000287810F0600000280AD0202801D04028E2
:102B70003ED129002000D4F8B422926890473BE06F
:102B80006878002820D0012828D0032821D00528E3
:102B90000BD0062804D0082811D009280AD022E03A
:102BA0002900200000F09AF921E02900200000F01F
:102BB00096FA1CE02900200000F0C5FA17E0290071
:102BC000200000F029FB12E02900200000F04BFB60
:102BD0000DE02900200000F06CFB08E02900200037
:102BE00000F074FB03E02900200000F09AFB03E0F2
:102BF0002900200000F095FB3000C0B270BD70B518
:102C000004000D000026287810F06000002803D092
:102C1000202801D0402823D194F89C02401E02288D
:102C200019D82879022811DA29002000D4F8B42212
:102C3000926890470600E88800280BD13000C0B2A7
:102C4000002807D1200000F0F1FB03E0290020005C
:102C500000F067FB03E02900200000F062FB03E0C6
:102C60002900200000F05DFB002070BD2DE9F0413F
:102C700004000D000027B5F80480287810F06000EB
:102C800000280BD0202802D0402840F01F812900C6
:102C90002000D4F8B422926890471BE1287810F005
:102CA0006000202807D129002000D4F8B4229268BF
:102CB0009047C0B210E16878002870D001283CD05D
:102CC000032840F0FE8094F89C02022802D00328DA
:102CD00017D02DE04046C0B200280DD04046C0B20B
:102CE000802809D04146C9B22000FEF73EFB802172
:102CF0002000FEF73AFB03E02900200000F011FB62
:102D00001AE0688800280FD14046C0B200280BD0D6
:102D10004046C0B2802807D0E888002804D1414648
:102D2000C9B22000FEF721FB200000F07FFB03E08A
:102D30002900200000F0F5FAC7E094F89C02022870
:102D400002D0032817D025E04046C0B200280DD09D
:102D50004046C0B2802809D04146C9B22000FEF7E3
:102D600004FB80212000FEF700FB03E02900200087
:102D700000F0D7FA12E0688800280AD118F07F0F17
:102D800004D04146C9B22000FEF704FB200000F049
:102D90004DFB03E02900200000F0C3FA95E094F811
:102DA0009C02022802D003282DD085E04046C0B204
:102DB000002808D04046C0B2802804D02900200056
:102DC00000F0AFFA7CE05FEA08600AD54146C9B27C
:102DD00011F07F011420414304EB010010F11406AF
:102DE00009E04146C9B211F07F011420414304EBD0
:102DF000010010F5AA760020306002223100200088
:102E000000F0CCFA5CE05FEA08600FD54146C9B239
:102E100011F00F011420414304EB010080690028E8
:102E200015D12900200000F07CFA49E04146C9B2E2
:102E300011F00F011420414304EB0100D0F85801B8
:102E4000002804D12900200000F06BFA38E05FEA86
:102E500008600AD54146C9B211F07F0114204143F0
:102E600004EB010010F1140609E04146C9B211F06B
:102E70007F011420414304EB010010F5AA7640467F
:102E8000C0B2002803D04046C0B2802802D1002042
:102E900030600BE04146C9B22000FEF790FA0028EE
:102EA00002D00120306001E00020306002223100B9
:102EB000200000F073FA03E02900200000F031FA4E
:102EC00003E02900200000F02CFA03E02900200094
:102ED00000F027FA3800C0B2BDE8F081F8B5040070
:102EE0000D000020ADF8000000260027688880B2A1
:102EF000000AC0B201280AD0022810D0032823D02B
:102F0000062800F0A580072800F0B280C2E06946DC
:102F1000207CD4F8B022126890470600BFE0207CE5
:102F2000002808D16846D4F8B412896A8847060098
:102F30000220707007E06846D4F8B412C96A884766
:102F4000060002207070AAE0A878002808D00228A5
:102F50002CD018D304284FD03BD305285FD071E084
:102F6000D4F8B0024068002807D06946207CD4F825
:102F7000B02252689047060004E02900200000F0CB
:102F8000D0F97F1C63E0D4F8B0028068002807D035
:102F90006946207CD4F8B02292689047060004E08D
:102FA0002900200000F0BDF97F1C50E0D4F8B002E9
:102FB000C068002807D06946207CD4F8B022D268C7
:102FC0009047060004E02900200000F0AAF97F1CC9
:102FD0003DE0D4F8B0020069002807D06946207CA3
:102FE000D4F8B02212699047060004E029002000BE
:102FF00000F097F97F1C2AE0D4F8B002406900285D
:1030000007D06946207CD4F8B02252699047060068
:1030100004E02900200000F084F97F1C17E0D4F8B8
:10302000B0028069002807D06946207CD4F8B0221D
:1030300092699047060004E02900200000F071F931
:103040007F1C04E02900200000F06BF97F1C26E0C3
:10305000207C002806D16846D4F8B412496B884712
:10306000060004E02900200000F05BF97F1C16E058
:10307000207C002808D16846D4F8B412096B884730
:1030800006000720707004E02900200000F049F9D4
:103090007F1C04E02900200000F043F97F1C380069
:1030A000C0B200281AD1BDF80000002810D0E8886E
:1030B00000280DD0BDF80000E988884202D3E888D6
:1030C000ADF80000BDF800203100200000F066F9E6
:1030D000E888002802D1200000F0A8F9F1BD70B501
:1030E00004000D00A888002828D1E888002825D1F0
:1030F0006888802822D2A87810F07F00060094F813
:103100009C02032804D12900200000F00AF919E0EC
:1031100084F89E623100C9B22000FEF768F92000F1
:1031200000F084F93000C0B2002803D0022084F8F7
:103130009C0207E0012084F89C0203E029002000A3
:1031400000F0EFF870BD70B504000D00314E6888D6
:1031500030703078022804DB2900200000F0E1F80C
:1031600057E094F89C02022802D003281BD048E0C4
:103170003078002813D030786060032084F89C02F7
:1031800031782000FFF7B1FA022804D1290020008D
:1031900000F0C7F83DE0200000F048F902E0200010
:1031A00000F044F935E0307800280CD1022084F892
:1031B0009C023078606031782000FFF7ACFA200084
:1031C00000F034F91CE030786168884215D06168FD
:1031D000C9B22000FFF79FFA307860603178200094
:1031E000FFF783FA022804D12900200000F099F8A3
:1031F0000FE0200000F01AF902E0200000F016F9BC
:1032000007E02900200000F08CF831782000FFF75B
:1032100082FA70BDA813002038B504000D00E888BC
:10322000012804D02900200000F07BF81AE094F86F
:103230009C02401E012802D9801E09D00EE0002009
:10324000A060012214F10801200000F0A7F809E0B5
:103250000122211D200000F0A1F803E02900200038
:1032600000F05FF831BD38B504000D0094F89C0201
:10327000401E022818D8E888022804D0290020001F
:1032800000F04FF814E00120E060D4F8A402002818
:1032900003D0E06850F00200E060022214F10C015B
:1032A000200000F07BF803E02900200000F039F84E
:1032B00031BD38B504000D006888012805D1012012
:1032C000C4F8A402200000F0B1F831BD38B5040004
:1032D0000D0094F89C02401E022809D86888012835
:1032E00005D10020C4F8A402200000F09FF803E0FC
:1032F0002900200000F015F831BD0A7802704A78E4
:1033000042708A78CB7812EB032242800A794B799B
:1033100012EB032282808A79CB7912EB0322C280DE
:10332000704738B504000D0080212000FEF71DF81D
:1033300000212000FEF719F831BDF8B504000D009A
:1033400016000027002C1ED0200000F01DF84000C1
:10335000801C308030783900C9B268547F1C03204B
:103360003900C9B268547F1C207800280BD020781F
:103370003900C9B26854641C7F1C00203900C9B2EE
:1033800068547F1CF0E7F1BD02000020117800298D
:1033900002D0401C521CF9E7C0B2704770B504005F
:1033A0000D0016000220C4F89402300080B2E061E3
:1033B000300080B2206233009BB22A00002120003E
:1033C000FEF72AF8002070BD70B504000D0016004D
:1033D00033009BB22A0000212000FEF71DF80020D8
:1033E00070BD70B504000D0016000320C4F89402EF
:1033F000300080B2C4F85C01300080B2C4F86001D3
:1034000033009BB22A0000212000FEF720F80020A4
:1034100070BD70B504000D00160033009BB22A0089
:1034200000212000FEF713F8002070BD10B5040045
:103430000420C4F894020023002200212000FDF79C
:10344000EBFF002010BD10B504000520C4F8940265
:103450000023002200212000FDF7F9FF002010BD0D
:1034600080B50748016851F0100101600320FFF7A3
:10347000D2F80F2000F0D8FF00F0FCFF002002BDC2
:103480000020024018B585B01022002101A801F0EB
:1034900015F81C48016851F020010160016811F025
:1034A000200100910099016851F008010160016854
:1034B00011F0080100910099016851F004010160C8
:1034C000006810F004000090009800224FF4805132
:1034D0000D4800F093FB0D4C00224FF4806120005A
:1034E00000F08CFB4FF480600190012002900020DE
:1034F00003900220049001A9200000F063FA06B0B6
:1035000010BD00BF18100240000C0140000801402F
:1035100010B5114C002211492000FFF7B5F8002822
:1035200001D0FFF7EFFA0E492000FFF7C9F8002895
:1035300001D0FFF7E7FA0B49200001F065F90028F8
:1035400001D0FFF7DFFA2000FFF7C5F8002801D00F
:10355000FFF7D8FA10BD00BF240C0020280100207E
:10356000140000201801002010B586B010220021A0
:1035700002A800F0A3FF08220021684600F09EFF89
:10358000204C21482060472060600020A0604FF65A
:10359000FF70E06000202061002060610020A061D9
:1035A000200001F06FF9002801D0FFF7ABFA4FF4CB
:1035B0008050029002A9200001F0ECF9002801D00F
:1035C000FFF7A0FA0020009000200190694620003B
:1035D00001F0D4FA002801D0FFF794FA06B010BD2C
:1035E00081B00168084A914209D108490A6852F439
:1035F00000620A60096811F400610091009901B04D
:103600007047000008130020002C014018100240F1
:1036100010B5DFF8A443200001F02BFBCC212000E3
:1036200001F08CFB4421200001F088FB10BD2DE946
:10363000FE4304000D002000DFF874130978C0B2C7
:10364000884201D3002078E05FF00008DFF864636F
:103650002000C0B20001304400F0FDF8002801D184
:1036600000206AE0DFF85073380001F047FB0028C3
:1036700001D1002061E0380001F0FBFA2000C0B267
:10368000000106EB0001380001F042FCBE213800C9
:1036900001F054FB00263000C0B2052808DA3800DB
:1036A00001F05DFB69463200D2B28854761CF2E725
:1036B000E9469DF8008099F8010058EA0028380092
:1036C00001F0D7FA99F80400C0F341170937380020
:1036D000C0B2092806D02DD30B2817D00CD30C2844
:1036E0001ED027E0404680B201F05AFC5FF07C51CA
:1036F00001F064FC01001EE0404680B201F050FC85
:103700005FF07A5101F05AFC010014E0404680B2AB
:1037100001F046FC5FF0785101F050FC01000AE036
:10372000404680B201F03CFC5FF0765101F046FC6F
:10373000010000E0A14929600120BDE8FE832DE9D8
:10374000F04704000D00200099490978C0B2884272
:1037500001D300207DE0974E2000C0B2000130442C
:1037600000F079F8002801D1002072E0924F380073
:1037700001F07FFA2000C0B2000106EB0001380022
:1037800001F0C6FBBE21380001F0D8FA380001F084
:10379000E6FA380001F0E3FA380001F0E0FA80467A
:1037A000380001F0DCFA8146380001F0D8FA824690
:1037B0002800C0B2092804D11AF0BF0A1AF0DF0AA3
:1037C00019E02800C0B20A2804D11AF0BF0A5AF042
:1037D000200A10E02800C0B20B2804D15AF0400A99
:1037E0001AF0DF0A07E02800C0B20C2803D15AF013
:1037F000400A5AF0200A380001F03BFA2000C0B21B
:10380000000106EB0001380001F082FB4E21380078
:1038100001F094FA4146C9B2380001F08FFA4946E6
:10382000C9B2380001F08AFA5146C9B2380001F035
:1038300085FA380001F01DFA2000C0B2000106EB45
:103840000001380001F064FB4821380001F076FAED
:103850000120BDE8F08701000878282801D1012067
:1038600000E00020704780B5534801F047FA02BDE0
:1038700038B5FFF7F8FF002827D00020040020000B
:103880004B490978C0B288421FD24A4D002021001E
:10389000C9B20901294408732000C0B200012844BC
:1038A000FFF7D9FF00280ED02000C0B20001284445
:1038B00010F108012000C0B2FFF7B9FE2100C9B223
:1038C000090129440873641CD9E731BD10B4384A92
:1038D00003001478DBB2A34201D312781000002257
:1038E0001300DBB2082B0CDA324B0400E4B22401E3
:1038F00023441400E4B21B5D1400E4B20B55521CC7
:10390000EEE710BC704702002A4B1000C0B2000165
:103910001844007B002801D1002006E01000C0B24E
:103920000001184480680860012070472DE9F041CB
:1039300004005FF0000800251F4F4FF4805220491B
:10394000380001F00BFB380001F0D1FA060030001E
:10395000C0B2002817D0DFF8588098F80000401C4B
:1039600088F8000013482900C9B209010144380051
:1039700001F0E3FA6D1C380001F0C3FA060098F874
:1039800000000428E3DB002738002900C0B2C9B2D8
:10399000884209D22100C9B23800C0B2FFF7CFFE79
:1039A000FFF736FE7F1CEFE7BDE8F0810000000066
:1039B00078010020501300209013002000007F4366
:1039C000000C01402DE9F84703005FF0000E5FF0A6
:1039D0000008086830FA0EF0002800F0028101208B
:1039E00010FA0EF00400086820400500A54240F0DF
:1039F000F5804868002831D0012820D0022825D041
:103A000003283CD011281DD0122823D0DFF808C28B
:103A1000604523D0DFF804C260451FD0DFF800C244
:103A200060451BD0DFF8FCC1604517D0DFF8F8C156
:103A3000604513D0DFF8F4C160450FD022E0C868BC
:103A400080461FE0C868001D80461BE0C86808303B
:103A5000804617E0C8680C30804613E0886800286C
:103A600002D10420804609E08868012803D108209B
:103A700080461C6102E0082080465C6102E0002074
:103A80008046FFE7B5F5807F01D21E0000E01E1DD5
:103A9000B5F5807F02D25FEA8E0702E0BEF108072B
:103AA000BF005FF00F09D6F800C019FA07F03CEA32
:103AB000000C18FA07F050EA0C0CC6F800C0486871
:103AC000C00040F18B805A48D0F800C05CF0010C77
:103AD000C0F800C0006810F0010000900098554840
:103AE000F4465FEA9C0C50F82CC05FEA8E0A1AF08C
:103AF0000C0A19FA0AF93CEA090CDFF83C914B452B
:103B000002D15FF0000913E04C4A934202D15FF00A
:103B100001090DE04A4A934202D15FF0020907E031
:103B2000484A934202D15FF0030901E05FF00409C3
:103B30005FEA8E0212F00C0219FA02F9624659EAA3
:103B40000202F4465FEA9C0C40F82C204868C00250
:103B500007D53D48D0F800C055EA0C0CC0F800C0AD
:103B600006E03948D0F800C03CEA050CC0F800C0B7
:103B70004868800207D53548D0F800C055EA0C0CDB
:103B8000C0F800C006E03148D0F800C03CEA050C9F
:103B9000C0F800C04868800307D52D48D0F800C0A1
:103BA00055EA0C0CC0F800C006E02948D0F800C067
:103BB0003CEA050CC0F800C04868C00307D525489A
:103BC000D0F800C055EA0C0CC0F800C006E021484F
:103BD000D0F800C03CEA050CC0F800C01EF1010E90
:103BE000F7E6BDE8F187020090680B009BB218422F
:103BF00001D0012000E00020C0B270471300DBB20A
:103C0000002B03D00B009BB2036103E00B009BB2BF
:103C10001B04036170470000000011100000121027
:103C200000002110000022100000311000003210AE
:103C3000181002400800014000080140000C01403B
:103C40000010014000140140080401400C04014030
:103C5000040401400004014070B5040001F01AFAA8
:103C60000500260016F1010F02D0044800788619DD
:103C700001F010FA401BB042FAD370BD7901002068
:103C800062F30F2262F31F42401810F0030308D0C2
:103C9000C91A1FD3DB0748BF00F8012D28BF20F841
:103CA000022D130030B414461546103928BF20E900
:103CB0003C00FAD8490728BF20E90C0048BF40F86B
:103CC000042D890028BF20F8022D48BF00F8012DDF
:103CD00030BC7047C91818BF00F8012DCB0728BFAA
:103CE00000F8012D704700002DE9FC470400002C6E
:103CF00001D10120F6E12078C0076BD5DFF8BC05C3
:103D0000016811F00C01042907D0016811F00C01C1
:103D100008290CD10068C00309D5DFF89C050068AC
:103D2000800357D56068002854D10120DAE160682B
:103D3000B0F5803F06D1DFF88005016851F480318D
:103D4000016026E0606800280AD1DFF86C05016890
:103D500031F480310160016831F48021016018E0A4
:103D60006068B0F5A02F0AD1DFF84C05016851F466
:103D700080210160016851F48031016009E0DFF8C1
:103D80003805016831F480310160016831F4802127
:103D90000160606800280ED001F07CF90500DFF8B2
:103DA00018050068800315D401F074F9401B6528DC
:103DB000F5D3032096E101F06DF90500DFF8F80472
:103DC0000068800306D501F065F9401B6528F5D32E
:103DD000032087E12078800750D5DFF8E0040168F0
:103DE00011F00C0F07D0016811F00C01082914D153
:103DF0000068C00311D4DFF8C0040168890704D546
:103E00002169012901D001206CE1016831F0F8013C
:103E1000626951EAC201016030E0206900281AD0CD
:103E20000120DFF8AC14086001F034F90500DFF878
:103E300088040168890706D401F02CF9401B032887
:103E4000F5D303204EE1016831F0F801626951EACF
:103E5000C201016012E00020DFF87414086001F074
:103E600019F90500DFF850040068800706D501F055
:103E700011F9401B0328F5D3032033E12078000714
:103E80002CD5A069002816D00120DFF8481408605E
:103E900001F000F90500DFF834040068800706D45B
:103EA00001F0F8F8401B0328F5D303201AE10120A4
:103EB00000F0EEF912E00020DFF81814086001F0BD
:103EC000E9F80500DFF804040068800706D501F072
:103ED000E1F8401B0328F5D3032003E120784007D5
:103EE00040F18E800027DFF8F083D8F80000C00092
:103EF0000DD4D8F8000050F08050C8F80000D8F871
:103F0000000010F080500090009801200700DFF8BA
:103F1000CC93D9F80000C00513D4D9F8000050F4B0
:103F20008070C9F8000001F0B5F80500D9F800006C
:103F3000C00506D401F0AEF8401B6528F6D3032077
:103F4000D0E0E068012806D1DFF89403016851F061
:103F50000101016025E0E06800280AD1DFF8800354
:103F60000168490849000160016831F004010160FD
:103F700017E0E06805280AD1DFF86403016851F012
:103F800004010160016851F00101016009E0DFF8FE
:103F900050030168490849000160016831F00401DB
:103FA0000160E068002810D001F074F80500DFF827
:103FB00030030068800719D401F06CF8401B41F20F
:103FC00089318842F3D303208CE001F063F80500C7
:103FD000DFF80C030068800708D501F05BF8401B90
:103FE00041F289318842F3D303207BE03800C0B22C
:103FF000012805D1D8F8000030F08050C8F8000042
:10400000E06900286DD0DFF8B482D8F8000010F025
:104010000C00082851D0E06902283BD1DFF8C4A287
:104020000020CAF8000001F035F80700DFF8889298
:10403000D9F80000800106D501F02CF8C01B032838
:10404000F4D303204EE0206AB0F5803F07D1D8F8C2
:10405000001031F40031A0680143C8F80010D8F80E
:10406000001031F47411206A0143606A0143C8F8FA
:1040700000100120CAF8000001F00CF80500D9F882
:10408000000080012DD401F005F8401B0328F6D371
:10409000032027E00020DFF84C12086000F0FAFF50
:1040A0000500DFF81402006880011AD500F0F2FF65
:1040B000401B0328F5D3032014E0E069012801D157
:1040C00001200FE0D8F80000060016F48030216AC5
:1040D000884204D116F47010616A884201D0012030
:1040E00000E00020BDE8F6872DE9F04104000D0056
:1040F000002C01D101209BE0DFF8EC71386810F052
:104100000700A8420BD23868C008C00028433860B6
:10411000386810F00700A84201D0012088E020781C
:10412000800716D52078400704D56448016851F40B
:10413000E06101602078000704D56048016851F40F
:10414000605101605D490A6832F0F002A0680243E4
:104150000A602078C00735D56068012805D1564827
:104160000068800310D4012062E06068022805D155
:1041700051480068800107D4012059E04E4800688A
:10418000800701D4012053E0DFF83081D8F8001017
:104190008908890060680143C8F8001000F07AFFC0
:1041A0000600D8F8000010F00C006168B0EB810F39
:1041B00008D000F06FFF801B41F289318842F0D3B4
:1041C000032035E0386810F0070085420BD23868CC
:1041D000C008C00028433860386810F00700A842C3
:1041E00001D0012024E02078400706D533490A6831
:1041F00032F4E062E06802430A602078000707D5E5
:104200002E48016831F46051226951EAC20101600F
:1042100000F010F83549294A1268C2F30312895C8C
:10422000C840284908602848006800F0FDF80020D0
:10423000BDE8F081F0B40020002100220023002519
:104240001E4E346814F00C07042F02D0082F02D041
:104250001BE01B481AE02648C4F38347C05D0300F7
:10426000E0030CD523483668C6F34046805D010064
:10427000134800FB03F0B0FBF1F0020003E01E481E
:1042800000FB03F00200100000E00D48F0BC704796
:1042900081B00C490968C9084FF47A72B1FBF2F198
:1042A00001FB00F1009100BF00994A1E0092002915
:1042B000F9D101B070470000001002400410024024
:1042C00000127A00040000200000002024100240A8
:1042D00000004242800442421C1002400070004034
:1042E000201002406000424200200240E8530008D3
:1042F000D85300083225000800093D002DE9F84395
:104300000500002600242878C0076CD50027DFF8B8
:104310000481D8F80000C0000DD4D8F8000050F097
:104320008050C8F80000D8F8000010F080500090CD
:10433000009801200700DFF8E090D9F80000C005E0
:1043400013D4D9F8000050F48070C9F8000000F0D0
:10435000A1FE0600D9F80000C00506D400F09AFEC0
:10436000801B6528F6D3032052E0DFF8B090D9F81F
:10437000000010F440700400002C22D0686810F493
:10438000407084421DD0D9F8000030F44070040021
:1043900023480121016000210160C9F80040E007C5
:1043A0000FD500F077FE0600D9F80000800708D48A
:1043B00000F070FE801B41F289318842F4D3032063
:1043C00026E0D9F8001031F4407168680143C9F85B
:1043D00000103800C0B2012805D1D8F8000030F034
:1043E0008050C8F800002878800706D50D490A6873
:1043F00032F44042A86802430A602878C00606D515
:1044000008490A6832F48002E86802430A60002022
:10441000BDE8F2831C1002400070004020100240F2
:10442000400442420410024010B504004FF47A7078
:104430000D490978B0FBF1F00C490968B1FBF0F0C7
:10444000FEF70BF9002801D001200CE0102C09D256
:10445000002221005FF0FF30FEF7E3F8044804601B
:10446000002000E0012010BD7901002004000020A0
:104470000000002081B00E48016851F00101016088
:10448000006810F00100009000980A48016851F09F
:1044900080510160006810F080500090009806493B
:1044A000086830F0E06050F00070086001B07047BC
:1044B000181002401C1002400400014010B50446D0
:1044C00010460A4601462046FFF7DAFB204610BD9B
:1044D000F8B505000E000027287C002813D14FF402
:1044E0000073022281212800FCF70EFF0120E86200
:1044F0004FF40073022201212800FCF705FF012080
:10450000C5F86C0110E04023022281212800FCF74D
:10451000FBFE0120E8624023022201212800FCF773
:10452000F3FE0120C5F86C01082303228221280034
:10453000FCF7EAFE012028644FF40770FCF7ACFF9B
:10454000C5F8B802D5F8B802002802D1012007004A
:104550001FE0D5F8B8020400D5F8BC020068804717
:104560000020C4F814020020C4F81802287C002897
:1045700008D14FF40073D4F8042201212800FCF77D
:1045800066FF06E04023D4F8042201212800FCF74E
:104590005EFF3800C0B2F2BD70B504000D00002609
:1045A00081212000FCF7CCFE0020E06201212000E8
:1045B000FCF7C6FE0020C4F86C0182212000FCF745
:1045C000BFFE00202064D4F8B80200280AD0D4F836
:1045D000BC0240688047D4F8B802FCF76BFF0020AB
:1045E000C4F8B8023000C0B270BDF8B504000D00C8
:1045F000D4F8B86200208DF800000020ADF8020069
:104600000027287810F06000002828D0202863D1E7
:10461000E88800281BD0287800060CD5EA883100ED
:104620006878D4F8BC329B689847EA88310020004B
:10463000FEF7B4FE12E0687886F80002E88886F893
:104640000102EA8831002000FEF7CBFE06E00022DE
:1046500029006878D4F8BC329B68984742E06878B3
:10466000002804D00A2814D00B2823D02DE094F879
:104670009C02032806D102220DF102012000FEF760
:104680008DFE05E029002000FEF74BFE022007000A
:1046900021E094F89C02032805D1012269462000FC
:1046A000FEF77CFE05E029002000FEF73AFE02201E
:1046B000070010E094F89C02032805D02900200090
:1046C000FEF72FFE0220070005E029002000FEF77C
:1046D00028FE0220070005E029002000FEF721FE49
:1046E000022007003800C0B2F2BDF8B504000D008A
:1046F000D4F8B862D4F8C072D4F8B80200282ED02A
:1047000014222800C0B250432044C069002821D0A0
:104710002800C0B250432044C0692B00DBB22821DE
:104720004B4307EB0301096AB0FBF1F301FB1300F4
:1047300000280FD12800C0B202FB00F204EB0200F7
:104740000021C161002300222900C9B22000FCF72A
:1047500063FE02E00020C6F81402002000E0022000
:10476000F2BD70B504000D00D4F8B8622900C9B2DA
:104770002000FCF787FEC6F80C02D4F8B802002827
:1047800009D016F50371D6F80402D4F8BC22D26819
:104790009047002000E0022070BD38B50400D4F836
:1047A000B852D4F8BC02002810D095F80002FF28B7
:1047B0000CD095F8012292B2290095F80002D4F8A5
:1047C000BC329B689847FF2085F80002002032BD6C
:1047D00001004320088008487047010043200880FA
:1047E00006487047010043200880054870470100D3
:1047F0000A20088003487047900000204C000020E9
:10480000D40000200800002002000220002903D06C
:10481000C2F8BC1200231800C0B2704710B40300E5
:10482000D3F8B842C4F80812100080B2C4F81002DD
:10483000002010BC70470200D2F8B832C3F804124E
:104840000020704738B50400D4F8B852D4F8B80244
:10485000002814D0207C002808D14FF40073D5F82C
:10486000042201212000FCF7F2FD06E04023D5F8E8
:10487000042201212000FCF7EAFD002000E00220D4
:1048800032BD000010B50400002C01D101202FE042
:1048900094F83D00002805D1002084F83C00200059
:1048A000FEF79EFE022084F83D00211D206800F0E6
:1048B000EBF8012084F84600012084F83E00012036
:1048C00084F83F00012084F84000012084F8410072
:1048D000012084F84200012084F84300012084F87C
:1048E0004400012084F84500012084F83D000020A8
:1048F00010BD010091F83D00012801D001202AE0FF
:10490000022081F83D000868DFF87C3098420DD025
:104910000868B0F1804F09D00868DFF8703098421D
:1049200004D00868DFF8683098420DD108688068C4
:1049300010F007000200062A0CD00868006850F04A
:1049400001000B68186005E00868006850F001007D
:104950000B6818600020704701000868006A41F287
:10496000111210420BD10868006A40F24442104212
:1049700005D108680068400840000A6810600120FE
:1049800081F83D0000207047002C014000040040E9
:1049900000080040F8B504000D00002694F83C0023
:1049A000012801D102206EE0012084F83C000220A1
:1049B00084F83D002068876837F0770737F47F4731
:1049C00020688760286800284ED010284CD0202806
:1049D0004AD0302848D040283CD0502826D06028E3
:1049E0002ED0702807D0B0F5805F03D0B0F5005FFF
:1049F0000FD03EE03FE0EB686A68A968206800F0ED
:104A0000B2F82068806850F077000700206887605F
:104A100031E0EB686A68A968206800F0A4F82068B3
:104A2000806850F480402168886024E0EA68696802
:104A3000206800F06BF85021206800F08CF81AE034
:104A4000EA686968206800F073F86021206800F067
:104A500082F810E0EA686968206800F057F84021A1
:104A6000206800F078F806E02968206800F073F804
:104A700001E001200600012084F83D00002084F8B8
:104A80003C003000C0B2F2BD10B403681C4CA04220
:104A900008D0B0F1804F05D01A4A904202D01A4A8D
:104AA000904204D133F070031A004B681343A042C4
:104AB00008D0B0F1804F05D0124A904202D0124A7D
:104AC000904204D133F440731A00CB68134333F09F
:104AD00080034A69134303608A68C2620A6882627B
:104AE000A04201D10A690263012242610269D20730
:104AF00003D5026952085200026110BC70470000E1
:104B0000002C0140000400400008004010B4046A7A
:104B1000036A5B085B000362836933F0F00353EAC6
:104B2000021334F00A040C438361046210BC704722
:104B300010B4046A036A33F010030362836933F428
:104B4000704353EA023334F0A00454EA0114836141
:104B5000046210BC7047826832F070020A4352F05F
:104B600007028260704710B4846834F47F440C43B9
:104B7000144354EA0324846010BC704730B402002C
:104B800092F83C00012801D102202DE0012082F89A
:104B90003C00022082F83D00106843681068846879
:104BA00033F0700308680343106843601068104DC9
:104BB000A8420BD01068B0F1804F07D010680D4D9F
:104BC000A84203D010680C4DA84206D134F08004EE
:104BD00020004C68044310688460012082F83D0086
:104BE000002082F83C00002030BC7047000000002C
:104BF000002C0140000400400008004038B50400CB
:104C0000DFF898532800FFF7A7FE002029684862C4
:104C10002800FFF76EFE200080B22968496A8842AA
:104C2000F9D231BD1FB50400002001900020029090
:104C300001200390A088009069462068FEF7C2FE1C
:104C40001FBD1FB50400112001900020029001201B
:104C50000390A088009069462068FEF7B3FE1FBD50
:104C600081880904026811617047818802681161B6
:104C7000704738B504002000FFF7F2FF2000FFF76F
:104C8000E0FF4FF4F070FFF7B9FF2000FFF7CAFF15
:104C90004620FFF7B3FFA1882068FEF7A4FF0500B8
:104CA0004FF4CD70FFF7AAFF2800C0B232BD38B56F
:104CB00004000D002800C0B200280FD02000FFF72C
:104CC000CFFF2000FFF7BDFF0620FFF797FF200072
:104CD000FFF7A8FF4020FFF791FF0EE02000FFF74D
:104CE000BFFF2000FFF7ADFF3C20FFF787FF20004C
:104CF000FFF798FF0A20FFF781FF31BD38B50400A8
:104D000000252000FFF7ACFF2000FFF79AFF0220EC
:104D1000FFF774FF2000FFF785FF0A20FFF76EFF03
:104D2000A1882068FEF75FFF002801D00120050060
:104D30003220FFF763FF2800C0B232BD70B5040017
:104D40000D00082615F001012000FFF7B0FFEDB2BD
:104D50006D08761E3000C0B20028F3D170BD70B56A
:104D6000050008260020C0B2400804002800FFF714
:104D7000C5FF54EAC010761E3100C9B20029F2D135
:104D8000C0B270BD00218171002101720021C1718A
:104D900070472DE9F34F81B0040001275FF0000850
:104DA0005FF000095FF0010A5FF0000B207A002835
:104DB00040F08A802000FFF75CFF002807D0002029
:104DC000A071002020720020E07100208DE09DF88D
:104DD00008102000FFF7B2FF2000FFF78FFF05004B
:104DE0002000FFF78BFF8DF800002800C0B20128DB
:104DF00003D19DF80000012859D028009DF800102B
:104E0000C0B2884201D02E0024E03800A179C0B29F
:104E100088420CD24846C0B22044417A5046C0B2C3
:104E20000140012901DB012609E0002607E03800E6
:104E3000A179C0B2884201D1012600E000263000ED
:104E4000C0B2002806D1B8464046C0B2092801DAEF
:104E500084F807803000C0B201280AD14846C0B2A9
:104E60002044407A5AEA00004946C9B221444872B7
:104E700009E04846C0B22044407A30EA0A00494678
:104E8000C9B2214448723100C9B22000FFF70FFFB8
:104E90007F1C5FEA4A0A5046C0B2002803D119F1CC
:104EA0000109012082464846C0B2082894DB380038
:104EB000C0B2412808DB84F80680A079002801D11F
:104EC00001202072012083465846C0B2002802D03B
:104ED000607A002807D10020A071002020720020F5
:104EE000E071002083465846C0B2BDE8FE8F10B581
:104EF00004002000FFF746FFF0212000FFF749FFE4
:104F000010BD10B50400F0212000FFF742FF10BDD6
:104F100070B504000D0055212000FFF70FFF00269B
:104F20003000C0B2082807DA3000C0B2295C200087
:104F3000FFF704FF761CF3E770BD10B400221300E6
:104F4000DBB2082B08DA1300DBB203445B7A1400EF
:104F5000E4B20B55521CF2E710BC704770B5040068
:104F60000D0016000D48FFF7C4FC2560A680200048
:104F7000FFF767FE2000FFF778FE6420FEF76CFE67
:104F80002000FFF76DFE6420FEF766FE2000FFF7AD
:104F90006CFEC820FEF760FE70BD00000813002004
:104FA00050B1B0FA80F18840C1F19D01C9050206F7
:104FB00072F1004241EB102070470000FF2212EA1C
:104FC000D05C1DBF12EAD153944593422BE09C4420
:104FD000D30780EA010243EA002043EA01211A4094
:104FE000A1FB0030C04238BF00187CF17F010BDB11
:104FF000FE294ADA5B0842EAC15153EA006373F1C1
:10500000004C51EB10207047D1F1080CDCF120016D
:105010002FDB5B0810FA01F10B4320FA0CF073F15F
:1050200000415041704794451CBF02EAD15393425E
:1050300080EA010202F000421DD0400019D0490070
:1050400017D05BB9634514D00902B1FA81F39940D6
:10505000BCEB030CC00140F00040C1E70002B0FA15
:1050600080FC10FA0CF0B3EB0C0CC90141F00041CC
:10507000B6E71000704740000AD0490008D010F190
:10508000807F94BF11F1807F02E042F0FF407047C3
:10509000D043704701480068704700BFA413002048
:1050A0000200122008803748704702000420088060
:1050B0003548704738B504000D002000C0B2002804
:1050C00005D12A0031493248FEF737F904E02A00B9
:1050D0002E492F48FEF731F92C4832BD70B5040037
:1050E0000D002A4E2A0031002A48FEF726F930002A
:1050F00070BD38B504000D001A20288000F02AF891
:10510000254832BD38B504000D002000C0B200288B
:1051100005D12A001D492148FEF70FF904E02A00B5
:105120001A491E48FEF709F9184832BD38B504007F
:105130000D002000C0B2002805D12A0013491848EC
:10514000FEF7FBF804E02A0010491548FEF7F5F8D1
:105150000E4832BDF8B51348046813480568134873
:1051600006683419002C0BD00B4F0822B91C200004
:1051700000F01EF8042217F11201280000F018F8C0
:10518000F1BD00004401002058010020081100205A
:10519000AC530008C45300085C01002018540008F8
:1051A000F8530008E8F7FF1FECF7FF1FF0F7FF1FA9
:1051B00030B4002400231C001500E4B2EDB2AC4270
:1051C0001BD20400240F0A2C07D20400240F303411
:1051D0001D00EDB201F8154006E00400240F37343D
:1051E0001D00EDB201F81540000100241D00EDB2D4
:1051F00001EB45056C705B1CDDE730BC70470000BF
:1052000010B51E4C00221E492000FFF707FB1D4968
:105210002000FFF710FB002010BD002070470300A6
:105220001800C0B2002810D001280FD002280ED0DC
:1052300003280DD004280CD020280BD021280AD018
:10524000222809D0232808D008E007E006E005E07E
:1052500004E003E002E001E000E0FFE70020704727
:1052600070B504000D00054E21003000FFF7E3FA91
:105270003000FFF7E7FA002070BD0000240C00208A
:10528000640500207C01002030B4002512E050F8B5
:10529000042BD30744BF4A44521E091F042942F875
:1052A000045BFAD213468C0744BF15809B1CC907C8
:1052B00048BF1D7050F8041B0029E8D130BC70476E
:1052C000FEE7FEE7FEE7FEE7FEE770477047704740
:1052D00080B500F009F801BD80B50248FAF7D1FFAA
:1052E00001BD00004C09002003490A68034800780A
:1052F00082180A60704700BFA413002079010020C3
:1053000010B5074979441831064C7C44163404E042
:105310000A68081D114488470146A142F8D110BD12
:10532000080000002400000061FFFFFF30120000B1
:105330007C01002000000000D7D0FFFF9201000098
:10534000B00100000000002000F00DF8002801D09E
:10535000FFF7D6FFAFF300800020AFF30080FDF72A
:1053600053FB00F002F80120704700F001B8000084
:105370000746384600F002F8FBE7000080B5AFF3BF
:105380000080024A11001820ABBEFBE72600020095
:105390000548014603B4684680F30988AFF30080EE
:1053A000AFF30080FFF7D0FFA5EDF5FE53544D336A
:1053B00032205669727475616C20436F6D506F7244
:1053C0007400000053544D6963726F656C656374BB
:1053D000726F6E6963730000020304050607080913
:1053E0000A0B0C0D0E0F1010000000000000000052
:1053F000010203040607080943444320496E74650B
:1054000072666163650000000148804701480047FB
:10541000CD5400089153000843444320436F6E6607
:1054200069670000FFF7FEBFFFF7FEBFFFF7FEBF93
:10543000FFF7FEBFFFF7FEBFFFF7FEBFFFF7FEBFA0
:10544000FFF7FEBFFFF7FEBFFFF7FEBFFFF7FEBF90
:10545000FFF7FEBFFFF7FEBFFFF7FEBFFFF7FEBF80
:10546000FFF7FEBFFFF7FEBFFFF7FEBFFFF7FEBF70
:10547000FFF7FEBFFFF7FEBFFFF7FEBFFFF7FEBF60
:10548000FFF7FEBFFFF7FEBFFFF7FEBFFFF7FEBF50
:10549000FFF7FEBFFFF7FEBFFFF7FEBFFFF7FEBF40
:1054A000FFF7FEBFFFF7FEBFFFF7FEBFFFF7FEBF30
:1054B000FFF7FEBFFFF7FEBFFFF7FEBFFFF7FEBF20
:1054C000FFF7FEBFFFF7FEBFFFF7FEBF70471310E9
:1054D00000011005127A000A0600020B13400105B4
:1054E0001007D144000899450008EB04211F139BC5
:1054F000470C900646000863470008000112DB10C5
:1055000012D10412E50412EF04100D090243000247
:105510000100C0320904000001020B101E05240026
:1055200010010524010001042402020524060001E3
:105530000705820308001009040100020A4E100248
:10554000070501027B200107058107F2280044229C
:105550004007228107200100090744F22C0444106F
:1055600003015200081B04121F041261041003A15E
:10557000500008AB0412DD0412B50412F30410034A
:10558000055100082D041212431006020200408348
:105590000440577917020345F00508040309041A6B
:0655A000030001030101FC
:04000005080053910B
:00000001FF
